:1000000080C00000B5C000000C94080CB1C0000016
:10001000AFC00000ADC00000ABC00000A9C0000030
:10002000A7C00000A5C00000A3C000000C942E12C1
:100030009FC000009DC000009BC000000C948E0B70
:100040000C94BE0B95C000000C94E30B91C0000013
:100050008FC000000C94740B8BC000000C942A0C11
:1000600087C000000C94680C83C0000081C00000B1
:100070007FC000000E03460046006D0069006E0060
:100080006900000014036F00700065006E005600E8
:100090006500730070006100000004030904090298
:1000A0002200010100C03209040000010300000029
:1000B0000921110100012220000705810320000110
:1000C0001201100100000020EB034F20010001028B
:1000D00000010600FF0901A1010902150025FF75B5
:1000E00008952081020903150025FF7508952091C8
:1000F00002C0303132333435363738394142434427
:10010000454611241FBECFEFD2E0DEBFCDBF04B6FF
:1001100003FE18C08091790290917A02A0917B022F
:10012000B0917C028A3C9C4AA244BC4D59F4109286
:10013000790210927A0210927B0210927C02E0E027
:10014000F8E1099511E0A0E0B1E0E0EEF9E202C0CB
:1001500005900D92A031B107D9F722E0A0E1B1E0FE
:1001600001C01D92A937B207E1F787D70C94EE14AE
:100170000C94A50C292F332723303105C9F044F402
:100180002130310509F439C02230310539F40BC072
:100190002132310541F12232310551F120E030E0C8
:1001A00080E090E033C022E230E08EE990E02EC0A3
:1001B00099278130910559F08230910571F0892B92
:1001C00009F5EAE9F0E0249130E0CF011FC0E4E84E
:1001D000F0E0249130E0CF0119C0E4E7F0E0249191
:1001E00030E0CF0113C029E030E080EB90E00EC09A
:1001F00020E230E082ED90E009C022E130E080ECC6
:1002000090E004C020E030E080E090E0FA019183CB
:100210008083822F932F0895FC01A081B1816C937C
:100220008081918101969183808326813781821715
:10023000930721F484819581918380832FB7F8946B
:10024000828593850196938782872FBF0895FC014D
:10025000A281B3818D91B383A28326813781A217B6
:10026000B30721F424813581338322839FB7F89427
:100270002285338521503109338722879FBF089516
:10028000ECE1F2E0A081B1818DE08C9380819181DD
:10029000019691838083268137818217930721F409
:1002A00084819581918380832FB7F894828593858B
:1002B0000196938782872FBF0895ECE1F2E0A08139
:1002C000B1818FE48C9380819181019691838083A9
:1002D000268137818217930721F484819581918348
:1002E00080832FB7F89482859385019693878287C0
:1002F0002FBFECE1F2E0A081B1818BE48C9380818F
:10030000918101969183808326813781821793079B
:1003100021F484819581918380832FB7F89482851D
:1003200093850196938782872FBFAACFECE1F2E0F5
:10033000A081B1818EE38C9380819181019691831C
:100340008083268137818217930721F484819581E8
:10035000918380832FB7F894828593850196938744
:1003600082872FBF8DCFEF92FF920F931F93CF9372
:10037000DF939FB7F894E0915202F09153029FBF30
:10038000EF2B09F4F2C5E8E4F2E0A281B3819D917C
:10039000B383A283C681D781AC17BD0721F4A481A2
:1003A000B581B383A2833FB7F894A285B385119733
:1003B000B387A2873FBF913409F068C1E8E4F2E057
:1003C000A281B3812D91B383A28386819781A817DF
:1003D000B90721F484819581938382833FB7F89490
:1003E000828593850197938782873FBF243509F0E3
:1003F000BCC5E8E4F2E0A281B3812D91B383A2836E
:1004000086819781A817B90721F484819581938308
:1004100082833FB7F894828593850197938782877B
:100420003FBF2A3509F034C065E48CE192E0F4DE88
:100430006CE48CE192E0F0DE6DE48CE192E0ECDEC5
:1004400063E38CE192E0E8DE62E38CE192E0E4DEDB
:1004500067E38CE192E0E0DE60E28CE192E0DCDEDA
:1004600066E78CE192E0D8DE61E38CE192E0D4DED5
:100470006EE28CE192E0D0DE63E38CE192E0CCDED0
:10048000FFDE54DF88E492E0E2DE109254026DC594
:10049000253459F488E492E0DADE0FDF47DF88E4A0
:1004A00092E0D5DE1092540260C52D3459F488E4F0
:1004B00092E0CDDE02DF3ADF88E492E0C8DE1092FF
:1004C000540253C52C3459F488E492E0C0DEF5DEC2
:1004D0002DDF88E492E0BBDE1092540246C523353E
:1004E00029F588E492E0B3DE883499F488E492E058
:1004F000AEDE88E492E0ABDE88E492E0A8DE88E439
:1005000092E0A5DE88E492E0A2DE88E492E09FDE3D
:1005100005C0803519F488E492E099DECEDE06DF6E
:1005200088E492E094DE109254021FC5283459F4F6
:1005300088E492E08CDEC1DEF9DE88E492E087DEBA
:100540001092540212C5223521F588E492E07FDE34
:100550008635B9F461E38CE192E05EDE62E38CE122
:1005600092E05ADE6EE28CE192E056DE66E38CE1C8
:1005700092E052DE66E58CE192E04EDE81DED6DE70
:1005800002C09BDED3DE88E492E061DE109254026A
:10059000ECC4263559F488E492E059DE8EDEC6DEDE
:1005A00088E492E054DE10925402DFC4213341F417
:1005B00084DEBCDE88E492E04ADE10925402D5C4A8
:1005C000203469F588E492E042DE813301F566E487
:1005D0008CE192E021DE66E48CE192E01DDE6DE6C6
:1005E0008CE192E019DE69E68CE192E015DE6EE6C0
:1005F0008CE192E011DE69E68CE192E00DDE40DEF6
:1006000095DE88E492E023DE10925402AEC455DEFB
:100610008DDE88E492E01BDE10925402A6C42934D9
:1006200009F0A3C465E48CE192E0F6DD6CE48CE1B2
:1006300092E0F2DD6DE48CE192E0EEDD63E38CE1CB
:1006400092E0EADD62E38CE192E0E6DD67E38CE1D3
:1006500092E0E2DD60E28CE192E0DEDD66E78CE1D3
:1006600092E0DADD61E38CE192E0D6DD6EE28CE1CE
:1006700092E0D2DD63E38CE192E0CEDD01DE56DE76
:1006800088E492E0E4DD109254026FC4903309F0E4
:100690006CC4E8E4F2E0A281B3813D91B383A2830C
:1006A000C681D781AC17BD0721F4A481B581B3837E
:1006B000A2839FB7F894A285B3851197B387A287C9
:1006C0009FBF3A3338F4323308F096C3313309F020
:1006D0004CC404C0313409F048C48EC3E8E4F2E0ED
:1006E000A281B3819D91B383A283C681D781AC17C8
:1006F000BD0721F4A481B581B383A2833FB7F894E9
:10070000A285B3851197B387A2873FBFE0914A02C4
:10071000F0914B023081303309F000C2E8E4F2E09E
:10072000228133812F5F3F4F33832283468157815C
:100730002417350721F424813581338322838FB731
:10074000F8942285338521503109338722878FBF62
:10075000903309F038C064E38CE192E05DDD61E341
:100760008CE192E059DD60E38CE192E055DD60E3DD
:100770008CE192E051DD60E38CE192E04DDD60E3DD
:100780008CE192E049DD61E38CE192E045DD60E3DC
:100790008CE192E041DD60E38CE192E03DDD60E3DD
:1007A0008CE192E039DD60E38CE192E035DD60E3DD
:1007B0008CE192E031DD64DDB9DD88E492E047DD73
:1007C00010925402D2C3923309F038C064E38CE132
:1007D00092E022DD61E38CE192E01EDD62E38CE1D8
:1007E00092E01ADD60E38CE192E016DD60E38CE1DB
:1007F00092E012DD60E38CE192E00EDD60E38CE1DB
:1008000092E00ADD60E38CE192E006DD60E38CE1DA
:1008100092E002DD60E38CE192E0FEDC61E38CE1DA
:1008200092E0FADC68E38CE192E0F6DC29DD7EDD23
:1008300088E492E00CDD1092540297C3ECE1F2E000
:10084000A081B18184E38C93208131812F5F3F4F60
:1008500031832083468157812417350721F4248171
:100860003581318320838FB7F894228533852F5FBC
:100870003F4F338722878FBFECE1F2E0A081B18147
:1008800081E38C93208131812F5F3F4F318320831F
:10089000468157812417350721F42481358131831E
:1008A00020838FB7F894228533852F5F3F4F33879E
:1008B00022878FBFECE1F2E0A081B1819C9380811F
:1008C00091810196918380832681378182179307D6
:1008D00021F484819581918380832FB7F894828558
:1008E00093850196938782872FBFECE1F2E0A08188
:1008F000B18180E38C938081918101969183808383
:10090000268137818217930721F484819581918311
:1009100080832FB7F8948285938501969387828789
:100920002FBFECE1F2E0A081B18180E38C93808164
:100930009181019691838083268137818217930765
:1009400021F484819581918380832FB7F8948285E7
:1009500093850196938782872FBFECE1F2E0A08117
:10096000B18180E38C938081918101969183808312
:10097000268137818217930721F4848195819183A1
:1009800080832FB7F8948285938501969387828719
:100990002FBFECE1F2E0A081B18180E38C938081F4
:1009A00091810196918380832681378182179307F5
:1009B00021F484819581918380832FB7F894828577
:1009C00093850196938782872FBFECE1F2E0A081A7
:1009D000B18180E38C9380819181019691838083A2
:1009E000268137818217930721F484819581918331
:1009F00080832FB7F89482859385019693878287A9
:100A00002FBFECE1F2E0A081B18180E38C93808183
:100A10009181019691838083268137818217930784
:100A200021F484819581918380832FB7F894828506
:100A300093850196938782872FBFECE1F2E0A08136
:100A4000B18180E38C938081918101969183808331
:100A5000268137818217930721F4848195819183C0
:100A600080832FB7F8948285938501969387828738
:100A70002FBFECE1F2E0A081B18180E38C93808113
:100A80009181019691838083268137818217930714
:100A900021F484819581918380832FB7F894828596
:100AA00093850196938782872FBFECE1F2E0A081C6
:100AB000B18180E38C9380819181019691838083C1
:100AC000268137818217930721F484819581918350
:100AD00080832FB7F89482859385019693878287C8
:100AE0002FBFCEDB23DCE8E4F2E082819381019624
:100AF00093838283268137818217930721F484812F
:100B00009581938382832FB7F8948285938501978B
:100B1000938782872FBF1092540227C2903309F027
:100B20007DC0E8E4F2E0A281B3812D91B383A2837A
:100B300086819781A817B90721F4848195819383D1
:100B400082833FB7F8948285938501979387828744
:100B50003FBF233409F009C2E114F1040105110576
:100B600089F160E070EC81EE94EEA80197010E949B
:100B70006614C901BA01A9014F7055276627772766
:100B8000FA01EE50FF4F2491FC01F295E295EF70CF
:100B9000EF27FF70EF27EF70FF27EE50FF4FD49144
:100BA000E92FFF27EF70FF27EE50FF4F1491892F99
:100BB000992782958F70FC01EE50FF4FE491C22F70
:100BC0000E2F04C0C0E3D0E310E300E364E38CE144
:100BD00092E022DB61E38CE192E01EDB60E38CE1DA
:100BE00092E01ADB63E48CE192E016DB602F8CE18B
:100BF00092E012DB612F8CE192E00EDB6D2F8CE135
:100C000092E00ADB6C2F8CE192E006DB39DB8EDBB5
:100C100088E492E01CDB10925402A7C1933309F0E0
:100C2000A4C1E8E4F2E0A281B3819D91B383A283E1
:100C3000C681D781AC17BD0721F4A481B581B383E8
:100C4000A2833FB7F894A285B3851197B387A28793
:100C50003FBF933409F067C062FD39C0382F20E0F0
:100C6000C901860F911D887F9F77969587959695E8
:100C70008795969587959C01220F331F96958795AA
:100C8000820F931F80579E4FFC01EF70FF27EE509D
:100C9000FF4FC491FC01F295E295EF70EF27FF70D2
:100CA000EF27EF70FF27EE50FF4FD491E92FFF277A
:100CB000EF70FF27EE50FF4F1491892F99278295EF
:100CC0008F70FC01EE50FF4FE4910E2F04C0C0E383
:100CD000D0E310E300E364E38CE192E09DDA61E3AA
:100CE0008CE192E099DA63E38CE192E095DA63E4D7
:100CF0008CE192E091DA602F8CE192E08DDA612F45
:100D00008CE192E089DA6D2F8CE192E085DA6C2F2C
:100D10008CE192E081DAB4DA09DB88E492E097DAD8
:100D20001092540222C1943409F01FC122FD38C030
:100D3000942F80E0820F911D887F9F7796958795ED
:100D400096958795969587959C01220F331F9695CA
:100D50008795820F931F80579E4FFC01EF70FF27EE
:100D6000EE50FF4FC491FC01F295E295EF70EF2732
:100D7000FF70EF27EF70FF27EE50FF4FD491E92F60
:100D8000FF27EF70FF27EE50FF4F1491892F99270F
:100D900082958F70FC01EE50FF4FE4910E2F04C03E
:100DA000C0E3D0E310E300E364E38CE192E034DAE3
:100DB00061E38CE192E030DA63E38CE192E02CDADB
:100DC00064E48CE192E028DA602F8CE192E024DA8E
:100DD000612F8CE192E020DA6D2F8CE192E01CDA39
:100DE0006C2F8CE192E018DA4BDAA0DA88E492E01A
:100DF0002EDA10925402B9C0ECE1F2E0A081B18188
:100E000084E38C93808191810196918380834681D4
:100E100057818417950721F484819581918380837C
:100E20002FB7F894828593850196938782872FBF89
:100E3000ECE1F2E0A081B1813C9380819181019647
:100E400091838083268137818217930721F48481DF
:100E50009581918380832FB7F8948285938501963D
:100E6000938782872FBFE8E4F2E0A281B3812D91BE
:100E7000B383A28386819781A817B90721F484815F
:100E80009581938382833FB7F894828593850197F8
:100E9000938782873FBFECE1F2E0A081B1812C9380
:100EA0008081918101969183808326813781821789
:100EB000930721F484819581918380832FB7F894DF
:100EC000828593850196938782872FBFE8E4F2E0BD
:100ED000A281B3812D91B383A28386819781A817C4
:100EE000B90721F484819581938382833FB7F89475
:100EF000828593850197938782873FBFECE1F2E07B
:100F0000A081B1812C93808191810196918380830E
:100F1000268137818217930721F4848195819183FB
:100F200080832FB7F8948285938501969387828773
:100F30002FBFA6D9FBD9E8E4F2E082819381019624
:100F400093838283268137818217930721F48481DA
:100F50009581938382832FB7F89482859385019737
:100F6000938782872FBF10925402DF91CF911F91F8
:100F70000F91FF90EF9008958AEA8093690082E0D4
:100F80008DBB08950E94D711F8942FEF87EA91E660
:100F9000215080409040E1F700C000008AEC9CEABC
:100FA000A2E4BCED8093790290937A02A0937B0235
:100FB000B0937C022CE088E190E00FB6F894A895FD
:100FC000809360000FBE20936000FFCF14BC85E0CB
:100FD00085BD84E686BD81E080936E000895109201
:100FE000800081E080938100B098EFE6F0E080819E
:100FF0008160808380818D7F808380818B7F8083EF
:101000000895CF9384B7877F84BFC8E10FB6F89463
:10101000C0936000109260000FBE90E080E80FB6B1
:10102000F89480936100909361000FBEA5DFCEDF3E
:10103000D6DF87E690E09093CD008093CC0086E0E9
:101040008093CA001092C800E9ECF0E0C083539A84
:101050005A9A808180688083209A289A84B1866019
:1010600084B923982B9A8DB581608DBD209885E534
:101070008CBD0E941F12CF91089584B780935602B1
:1010800014BE84B7877F84BF88E10FB6F89480933D
:101090006000109260000FBE90E080E80FB6F894F8
:1010A00080936100909361000FBE589881E0809317
:1010B0006902109266021092620210925802109217
:1010C000550210926A021092570210925D0210921D
:1010D0005F021092670210926B021092540280E13C
:1010E00084B980E287B981E48AB98BDFECE1F2E070
:1010F0004FB7F89488E292E0918380839383828350
:101100009583848388E492E09783868320E230E0AD
:1011100031872087138612864FBFE8E4F2E04FB78D
:10112000F8948CEF91E091838083938382839583FD
:1011300084838CE192E097838683318720871386AE
:1011400012864FBF1D9B21C082E080935A02F999FD
:10115000FECF8AEC90E00E94C0148093630200E10D
:1011600011E0C0E0D0E0F999FECFCE01880F991FC1
:10117000805090400E94C814D8018D939D938D019A
:101180002196C536D10579F720C081E080935A02B7
:10119000F999FECF85E991E00E94C0148093630223
:1011A00000E111E0C0E0D0E0F999FECFCE01880F58
:1011B000991F85539F4F0E94C814F8018193919302
:1011C0008F012196C536D10579F7109285001092CE
:1011D00084005E9881E080935B027894D12C812C0E
:1011E000912C5401312CC12C712C212CCFE6D0E054
:1011F00080E091E026D50E944B14F894809155022E
:10120000882309F462C080916902811151C0E09085
:10121000620260905802F0906A02FF2009F453C005
:101220005F2C412C82010E0D111D980140E050E011
:1012300068E972E980E090E00E948814253608F0A1
:1012400042C05898A4E8B0E011961C921E92E22F7A
:10125000F0E0EE0FFF1FE05FFE4F80819181A8E874
:10126000B0E011969C938E9380819181805E9C4F1B
:10127000EAE8F0E091838083F2E0F6BB8881826047
:10128000888388818B7F888310926A024801A12C11
:10129000B12CBA2CA92C982C8824860C911CA11C4A
:1012A000B11CF0925902E0926802609261020BC098
:1012B0001092690210926A02589888818D7F888303
:1012C00088818B7F8883109255027894F89480915E
:1012D0005702882361F080915502811108C0109255
:1012E00057028BB190E489278BB9DD24D39478948D
:1012F000DD2039F180915502811123C02C981EBC4C
:101300000DB407FEFDCF3EB41EBC0DB407FEFDCFED
:10131000CEB42C9A45981EBC0DB407FEFDCF7EB40A
:101320001EBC0DB407FEFDCF2EB4459AF894709202
:101330005C0220925E0230926002C0926502789454
:10134000D12C809154028823A9F0809155028111FB
:1013500011C02FB7F894A2E5B2E08D919C912FBFF8
:10136000892B41F0850174012C2D432D622D872D91
:101370000E94B3018091550281113ACF2FB7F894A2
:10138000E6E2F2E0808191812FBF892B09F430CF12
:10139000A8ECB0E08C9185FF2BCFECE1F2E0A281CC
:1013A000B3812D91B383A28386819781A817B90752
:1013B00021F484819581938382833FB7F894828559
:1013C00093850197938782873FBFEEECF0E02083FF
:1013D0000FCF0895089580E091E01DD4E2EEF0E093
:1013E000808184608083089580E091E0BFC2809115
:1013F0000E0190910F01009729F0019790930F0132
:1014000080930E010895DF92EF92FF920F931F9346
:10141000CF93DF93E90180915B028A3831F08B38FA
:10142000E9F0813009F0B9C07BC08BEA88838DEC8C
:1014300089838AE88A838091640280688B838EED39
:101440008E8B8DEA8F8B10925B021092640280E289
:1014500090E0F8019183808381E0A3C0F8948BEA47
:1014600088838DEC89838BE88A838091640280680D
:101470008B8380916402882309F446C080916402C2
:101480008150E82EEE0CEE0CE80EEE0CDE2C0F2E4A
:10149000FAE0FF2EF02DFE0CF4E6FF15A8F1F99905
:1014A000FECF1D9B08C08AEC90E00E94C0148D8F77
:1014B000DF1438F029C085E991E00E94C0148D8FB7
:1014C000F7CF25960F2EFAE0FF2EF02DF999FECFDB
:1014D0001D9B09C08E2D90E0880F991F8050904071
:1014E0000E94C81408C08E2D90E0880F991F855364
:1014F0009F4F0E94C814FE01319790838883E39424
:10150000FA942296F110E2CF10925B0210926402DC
:1015100080E290E0F80191838083789481E041C07B
:101520008BEA88838DEC898381E08A8380916802CD
:101530008B83809161028C83809159028D8380918D
:101540005D028E8380915F028F838091670288871E
:1015500080916B02898780915C02888B80915E020A
:10156000898B809160028A8B809165028B8B809140
:101570005A028C8B809156028D8B809163028E8BE8
:101580008091DA018F8B8F5F8093DA0180E290E0A7
:10159000F8019183808380E004C0F80111821082F9
:1015A00080E0DF91CF911F910F91FF90EF90DF903E
:1015B0000895DF92EF92FF920F931F93CF93DF93E3
:1015C000E90180917202893009F086C08091710230
:1015D000813209F081C088818B3A09F07DC0898110
:1015E0008D3C09F079C08A818B3809F464C020F4FD
:1015F0008A3809F071C007C08C3809F463C08F388D
:1016000009F06AC062C0F8948AE880935B028B811B
:101610008093640280916402882309F44AC0809117
:1016200064028150E82EEE0CEE0CE80EEE0CDE2C7F
:101630000F2EFAE0FF2EF02DFE0C84E68F15C8F178
:10164000F999FECF1D9B08C06D8D8AEC90E00E9439
:10165000CD14DF1438F02DC06D8D85E991E00E9426
:10166000CD14F7CF25960F2EFAE0FF2EF02DFE01B8
:101670003197108100E08881B801680F711DF999D8
:10168000FECF1D9B09C08E2D90E0880F991F8050C2
:1016900090400E94DB1408C08E2D90E0880F991FA7
:1016A00085539F4F0E94DB14E394FA942296F11025
:1016B000DECF789411C08BE880935B028B8180939E
:1016C00064020AC0F8945EDC07C0F89481E080935D
:1016D000690280935B027894DF91CF911F910F9103
:1016E000FF90EF90DF9008951F920F920FB60F9228
:1016F00011248F9384E686BD8091DB018F5F8093F8
:10170000DB018A3128F081E0809357021092DB01DF
:101710008F910F900FBE0F901F9018951F920F92F0
:101720000FB60F9211248F93EF93FF93809169026C
:10173000811114C08091840080935F0280918500A4
:1017400080935D02589AEFE6F0E080818D7F808380
:1017500084E086BB80818460808308C0EFE6F0E08F
:1017600080818D7F808380818B7F8083FF91EF914B
:101770008F910F900FBE0F901F9018951F920F9290
:101780000FB60F9211248F93EF93FF935898EFE6C3
:10179000F0E080818D7F808380818B7F808380914A
:1017A0006902811108C08091840080936B0280914E
:1017B000850080936702FF91EF918F910F900FBE8C
:1017C0000F901F9018951F920F920FB60F92112431
:1017D0008F93EF93FF9380916A028F5F80936A02E9
:1017E000833970F0EFE6F0E080818D7F8083808127
:1017F0008B7F808381E08093690210926A025898FF
:10180000FF91EF918F910F900FBE0F901F90189541
:101810001F920F920FB60F9211248F93EF93FF93A5
:101820008091550281110EC0E4E8F0E08081809340
:10183000580280918500809362021182108281E0BB
:1018400080935502FF91EF918F910F900FBE0F90F3
:101850001F9018951F920F920FB60F9211242F937D
:101860003F938F939F93AF93BF93EF93FF93809199
:10187000CE00803201F18D3019F491E09093540242
:10188000E8E4F2E0A081B1818C938081918101969E
:1018900091838083268137818217930721F4848185
:1018A0009581918380832FB7F894828593850196E3
:1018B000938782872FBFFF91EF91BF91AF919F9147
:1018C0008F913F912F910F900FBE0F901F90189501
:1018D0001F920F920FB60F9211242F933F938F9365
:1018E0009F93AF93BF93EF93FF932FB7F89480919B
:1018F0002602909127022FBF892BD1F0ECE1F2E074
:10190000A281B3812D91B383A28386819781A81789
:10191000B90721F484819581938382833FB7F8943A
:10192000828593850197938782873FBF2093CE005E
:10193000FF91EF91BF91AF919F918F913F912F9127
:101940000F900FBE0F901F9018951F920F920FB619
:101950000F9211248F93809166028F5F80936602AD
:101960008F910F900FBE0F901F9018953F924F923E
:101970005F926F927F928F929F92AF92BF92CF921F
:10198000DF92EF92FF920F931F93CF93DF9300D0DC
:101990001F92CDB7DEB76C01EDB6FEB68091E800C0
:1019A00083FF1FC1F601808190E020917502309184
:1019B00076022817390709F014C18091720283302A
:1019C00009F4ACC030F4813071F0823009F009C103
:1019D000EDC08A3009F4CEC08B3009F4B7C089302D
:1019E00009F0FFC059C080917102813A09F0F9C035
:1019F0008DB69EB61A821982E3E7F2E080811181EA
:101A00008B83F60140858DB79EB7841B91090FB675
:101A1000F8949EBF0FBE8DBFADB6BEB6E1E0F0E05C
:101A2000AE0EBF1E6A2C7B2C50E060E070E08A2D69
:101A30009B2D9FD7412F41508E010F5F1F4F2A2DA5
:101A40003B2DBE016D5F7F4FC601DDDCF6012681B7
:101A500037812115310539F0408550E06A2D7B2D05
:101A6000822F932F7DD71092E90008EE10E0F80145
:101A70008081877F808369817A81862D972D12D21C
:101A8000F80180818B778083882D992D0FB6F8948B
:101A90009EBF0FBE8DBFA5C080917102813209F03B
:101AA000A0C05DB66EB6A0907702B0907802E3E772
:101AB000F2E0708041808DB79EB78A199B090FB6FE
:101AC000F8949EBF0FBE8DBF8DB69EB6E1E0F0E0EC
:101AD0008E0E9F1E08EE10E0F8018081877F8083C4
:101AE000B501C40153D2F80180818E77808321E053
:101AF000711001C020E030E08501021B130B280D9E
:101B0000391D442D4150672DC60153DD852D962D7D
:101B10000FB6F8949EBF0FBE8DBF63C08091710257
:101B2000813A09F05EC0E8EEF0E08081877F808333
:101B3000808180FFFDCFF60181858093F100E8EE82
:101B4000F0E080818E778083CCD34BC0809171028E
:101B5000813209F046C0E8EEF0E08081877F808323
:101B6000C0D39091730281E0911101C080E0F60131
:101B7000818737C080917102813299F5E8EEF0E0FB
:101B80008081877F8083ADD38091730290917402AE
:101B900088270024880F991F001C880F991F001C9C
:101BA000892F902DF601958784871BC08091710243
:101BB000813AB9F4E8EEF0E08081877F808380810C
:101BC00080FFFDCFF601848595859695879596953E
:101BD00087958093F100E8EEF0E080818E77808336
:101BE00080D30FB6F894FEBE0FBEEDBE0F900F90DF
:101BF0000F90DF91CF911F910F91FF90EF90DF90A9
:101C0000CF90BF90AF909F908F907F906F905F909C
:101C10004F903F9008959C01275F3F4FE22FF32F95
:101C200027E0DF011D922A95E9F721E0FC012187D9
:101C300024EF31E03587248723E0248361E0019697
:101C4000E9C24F925F926F927F928F929F92AF9272
:101C5000BF92CF92DF92EF92FF920F931F93CF9399
:101C6000DF9300D01F92CDB7DEB77C01CDB6DEB6D4
:101C700080917002843009F09AC08091E4009091C4
:101C8000E500F701228533852817390709F48FC04D
:101C900081818F708093E9008091E80085FF87C083
:101CA0006DB67EB640858DB79EB7841B91090FB681
:101CB000F8949EBF0FBE8DBFADB6BEB6E1E0F0E0BA
:101CC000AE0EBF1E1B821A8219828A2C9B2C50E0FA
:101CD00060E070E08A2D9B2D4CD68E010F5F1F4F68
:101CE0002A2D3B2D40E0BE016D5F7F4FC7018BDB8E
:101CF000482EF70184859585892B49F001E010E095
:101D000086859785892B29F000E010E002C000E06D
:101D100010E0F701A680B780A114B104B1F04981A9
:101D20005A81B501882D992D0ED6282F392F55248B
:101D30005394232B09F4512CF701408550E0682D72
:101D4000792D8A2D9B2D0CD601C0512C89819A8129
:101D5000892BF9F0411004C0511002C000FF19C0D6
:101D6000F701848595859787868781818F70809319
:101D7000E9008B8181118093F10069817A8140E0D3
:101D800050E0882D992D2CD0E8EEF0E080818E7700
:101D900080838091E4009091E500F701938782872A
:101DA000862D972D0FB6F8949EBF0FBE8DBF0FB630
:101DB000F894DEBE0FBECDBE0F900F900F90DF9156
:101DC000CF911F910F91FF90EF90DF90CF90BF9038
:101DD000AF909F908F907F906F905F904F900895FD
:101DE0007F928F929F92AF92BF92CF92DF92EF92AB
:101DF000FF920F931F93CF93DF937C01EB015A0166
:101E000095D2782E81113FC0A114B10439F0F501AB
:101E100020813181C21BD30BE20EF31E209799F172
:101E200000E010E00F2EF8EE8F2E912CF02D0F2EEB
:101E3000F1EFCF2ED12CF02DF401908195FD17C03C
:101E400080818E77808327D5A114B10461F0F501DC
:101E500080819181080F191F118300830F2EF5E0F7
:101E60007F2EF02D10C062D2882349F00BC0F701FD
:101E700081917F01F601808321970F5F1F4F20978B
:101E8000D9F601C0782E872DDF91CF911F910F9148
:101E9000FF90EF90DF90CF90BF90AF909F908F908A
:101EA0007F9008950F931F93CF93DF932091770234
:101EB000309178022617370758F06115710539F40B
:101EC000E8EEF0E020812E7720839B0101C09B018A
:101ED000E0E0A8EEB0E062EF70E011E000E0C1EFFA
:101EE000D0E032C040917002442309F441C0453033
:101EF00009F440C04C9143FD3FC04C9142FD31C0BC
:101F00004C9140FF21C0FB01408150E0211531057B
:101F100099F04032510580F4E82FF92F81918883A0
:101F20008E2F9F2F215031094F5F5F4F21153105B3
:101F300019F04032510591F7E12F4032510509F077
:101F4000E02F4C914E774C932115310559F6E11154
:101F5000C9CF07C080917002882381F0853019F4C1
:101F60000FC0E8EEF0E0808182FFF4CF80E009C08E
:101F700082E007C083E005C081E003C082E001C0C9
:101F800083E0DF91CF911F910F9108950F931F93DD
:101F9000CF93DF936115710529F4E8EEF0E020811D
:101FA0002B772083A8EEB0E002EF10E021EF30E0C5
:101FB0001CC0409170024423B1F14530B1F14C9105
:101FC00043FD35C04C9142FFF4CF3DC0E90188810B
:101FD00081938E2F9F2F6150710921F0E801488174
:101FE0004111F4CF4C914B774C9361157105A1F0E1
:101FF000409170024423E9F04530E9F04C9143FDF3
:102000001CC04C9142FFD5CF1EC080917002882326
:10201000B1F0853019F415C0E8EEF0E0808180FF62
:10202000F4CF80E017C082E015C083E013C081E0E8
:1020300011C082E00FC083E00DC081E00BC082E0E0
:1020400009C083E007C0F8014081442359F2E82F1A
:10205000F92FBCCFDF91CF911F910F910895EF928F
:10206000FF921F93CF93DF932091770230917802F4
:102070002617370758F06115710539F4E8EEF0E0DE
:1020800020812E7720839B0101C09B01E82FF92F2F
:1020900060E0A8EEB0E042EF50E071E010E00F2EFB
:1020A000F1EFEF2EF12CF02D2EC0809170028823DD
:1020B00009F43DC0853009F43CC08C9183FD3BC0E0
:1020C0008C9182FD2DC08C9180FF1DC0EA0188811A
:1020D00090E02115310581F08032910568F464911A
:1020E000E7016883319621503109019621153105A8
:1020F00019F08032910599F7672F809709F0612FC9
:102100008C918E778C932115310579F66111CDCFA5
:1021100007C080917002882381F0853019F40FC0C8
:10212000E8EEF0E0808182FFF4CF80E009C082E039
:1021300007C083E005C081E003C082E001C083E006
:10214000DF91CF911F91FF90EF9008958F929F9212
:10215000BF92CF92DF92EF92FF920F931F93CF9394
:10216000DF93853070F126C0592F5F70E8015883E6
:10217000891731F0E901D8805081E401788103C0EA
:102180005B2DD62E7C2D51FF12C04C914E7F4C936F
:1021900040814D7F40834C9141604C93E901D8824E
:1021A0005083E4017883E7015881552344F49F5F0D
:1021B0009530D1F68F708093E90081E01FC080E0F8
:1021C0001DC0982F9F709093E900982F542FD62E02
:1021D00070E0ABEEB0E0EDEEF0E02CEE30E00F2E74
:1021E000F0EF8F2E912CF02D0F2EFEEEEF2EF12C16
:1021F000F02D09EE10E0B42EC12CC5CFDF91CF91A8
:102200001F910F91FF90EF90DF90CF90BF909F9024
:102210008F9008959F92AF92BF92CF92DF92EF92EC
:10222000FF920F931F93CF93DF93C62E662309F47B
:1022300047C0EC018C010C5F1F4FD12CB12C68946E
:10224000EE24E3F8F12C6894992491F80F2EF6E02F
:10225000AF2EF02D5881552359F1F8019081E98175
:10226000FA81D80111976C91852F8F70853050F5C8
:10227000923010F04A2D01C0492DE930F10548F0A7
:1022800097019B2D9F5F220F331F2E173F07D0F31F
:1022900001C09B2D9295907F492B6295660F660F2A
:1022A000607C551F5527551F652B50DF882361F033
:1022B000D39425960B5F1F4FDC10CCCF81E005C077
:1022C00081E003C080E001C080E0DF91CF911F91E9
:1022D0000F91FF90EF90DF90CF90BF90AF909F90C5
:1022E0000895809171028823B4F405C08091700232
:1022F000811103C00895E8EEF0E0808182FFF6CFFF
:10230000E8EEF0E080818B77808308958091700201
:10231000811103C00895E8EEF0E0808180FFF6CFE0
:10232000E8EEF0E080818E77808308950F931F930D
:10233000CF93DF932091E4003091E50065E6ACEEA9
:10234000B0E0E8EEF0E00BEE10E044EE50E08C91EF
:1023500080FD20C023C080917002882389F08530E1
:1023600089F0E801888185FD0FC0EA0188819981A3
:102370002817390761F361509C0149F784E012C0C6
:1023800082E010C083E00EC081E00CC080E00AC093
:1023900080E008C0808180FFDECFF8CF808182FF9F
:1023A000DACFF6CFDF91CF911F910F91089550D0E2
:1023B00052D0E0EEF0E0808181608083E8EDF0E0D3
:1023C00080818F77808319BCE3E6F0E080818160B3
:1023D000808310926F0208953BD03DD0E8EDF0E08D
:1023E00080818F77808380818068808380818F7DEA
:1023F000808384E089BD86E089BD09B400FEFDCFFD
:102400001092700210926C0210926E0210926D0285
:1024100042E260E080E09ADEE1EEF0E080818E7FD3
:102420008083E2EEF0E0808181608083808188603B
:102430008083E0EEF0E080818E7F80830895E3E684
:10244000F0E080818E7F808381E080936F02C4CF33
:102450001092E20008951092E10008951F920F92E9
:102460000FB60F9211242F933F934F935F936F9367
:102470007F938F939F93AF93BF93EF93FF9380913D
:10248000E10082FF0BC08091E20082FF07C0E1EE15
:10249000F0E080818B7F80830E94F7098091E100CA
:1024A00080FF16C08091E20080FF12C0E2EEF0E0F3
:1024B00080818E7F8083808180618083E8EDF0E081
:1024C00080818062808319BC109270020E94EA09A8
:1024D0008091E10084FF30C08091E20084FF2CC035
:1024E00084E089BD86E089BD09B400FEFDCFE8ED3A
:1024F000F0E080818F7D8083E1EEF0E080818F7E4F
:102500008083E2EEF0E080818F7E80838081816035
:10251000808380916C02882321F084E08093700294
:1025200009C08091E300882314F483E001C081E0B6
:10253000809370020E94E9098091E10083FF1EC030
:102540008091E20083FF1AC0E1EEF0E08081877F96
:10255000808382E08093700210926C0280818E7F73
:102560008083E2EEF0E080818E7F808380818061D5
:10257000808342E260E080E0E9DD8CD1FF91EF9161
:10258000BF91AF919F918F917F916F915F914F918B
:102590003F912F910F900FBE0F901F9018950F93A2
:1025A0001F93CF93DF93CDB7DEB7AC970FB6F894F8
:1025B000DEBF0FBECDBFE1E7F2E0A1EFB0E08C914E
:1025C000819322E0E937F207D1F70E94F409809164
:1025D000E80083FF3AC190917102809172028530C8
:1025E00009F481C038F48130D1F170F0833009F002
:1025F0002CC135C0883009F4F5C0893009F402C116
:10260000863009F022C196C0903821F0923809F046
:102610001CC108C080916D0290916E02992389F0CF
:1026200082600FC080917502909176028F70992719
:10263000E9EEF0E080838091EB0085FB882780F94C
:102640001082E8EEF0E09081977F9083A1EFB0E0F8
:102650008C931C9280818E77808343DEF6C0992311
:1026600009F402C1923009F0F0C003C191E0833057
:1026700009F090E090936E022DC0809175029091C8
:1026800076028F709927882309F4DFC08093E900D0
:102690002091EB0020FF1EC020917202233031F404
:1026A000EBEEF0E080818062808314C0EBEEF0E01E
:1026B00090819061908321E030E0A90102C0440F35
:1026C000551F8A95E2F7AAEEB0E04C931C928081E8
:1026D000886080831092E900E8EEF0E08081877FD7
:1026E0008083FFDDB2C09111B0C0809173029091E0
:1026F00074028F779927182FE3EEF0E0908190789D
:10270000892B8083E8EEF0E08081877F8083E9DD9C
:10271000E8EEF0E0808180FFFDCFE3EEF0E0808125
:1027200080688083112311F083E001C082E08093F0
:1027300070028BC09058923008F087C0809173026D
:10274000909174028C3D53E0950799F583E08A835C
:102750008AE289835FB7F894DE01139620E03EE0B9
:1027600041E2E32FF0E040935700849120FF03C043
:1027700082958F703F5F8F708A3018F090E0C79617
:1027800002C090E0C0968D939D932F5F243149F74E
:102790005FBF08EE10E0F8018081877F80836AE2E6
:1027A00070E0CE0101967EDBF80180818B7780831B
:1027B0004CC0AE01455D5F4F609175020E94BA004A
:1027C000009709F442C008EE10E0F8012081277F4D
:1027D0002083BC018BA59CA542DCF80180818B770E
:1027E000808333C0903889F5E8EEF0E08081877F00
:1027F000808380916C028093F10080818E7780834A
:1028000070DD23C0911121C0809173028230E8F401
:10281000E8EEF0E08081877F80838091730280936F
:102820006C025FDD80916C02882321F084E080934C
:10283000700209C08091E300882314F484E001C091
:1028400081E0809370020E94EB098091E80083FF91
:1028500016C0E8EEF0E08081877F8083EBEEF0E049
:102860008081806280830BC090917302913069F700
:10287000FDCE80917302882309F4FFCE2BCFAC9656
:102880000FB6F894DEBF0FBECDBFDF91CF911F9181
:102890000F9108950895CF93809170028823A1F03D
:1028A000C091E900CF708091EC0080FF02C080E809
:1028B00001C080E0C82B1092E9008091E80083FD00
:1028C0006EDECF70C093E900CF910895A1E21A2E79
:1028D000AA1BBB1BFD010DC0AA1FBB1FEE1FFF1FC4
:1028E000A217B307E407F50720F0A21BB30BE40B14
:1028F000F50B661F771F881F991F1A9469F760955B
:102900007095809590959B01AC01BD01CF01089514
:10291000052E97FB16F4009406D057FD0CD0D6DF99
:1029200007FC09D07EF490958095709561957F4F56
:102930008F4F9F4F089550954095309521953F4F6B
:102940004F4F5F4F0895FB01DC0104C08D91019052
:10295000801921F441505040C8F7881B990B089505
:10296000FB01DC0102C001900D9241505040D8F7AC
:102970000895DC0101C06D9341505040E0F7089587
:10298000F999FECF92BD81BDF89A992780B5089537
:10299000A8E1B0E042E050E013C0262FF999FECF45
:1029A0001FBA92BD81BD20BD0FB6F894FA9AF99A6C
:1029B0000FBE01960895F1DF272FF0CFDC01CB0188
:1029C000FC01F999FECF06C0F2BDE1BDF89A31963F
:1029D00000B40D9241505040B8F70895F894FFCFDD
:1029E000008120000001DC01200000000000000048
:00000001FF
